{
  "contractName": "DonationSplitter",
  "abi": [
    {
      "constant": true,
      "inputs": [],
      "name": "totalShares",
      "outputs": [
        {
          "name": "",
          "type": "uint256"
        }
      ],
      "payable": false,
      "stateMutability": "view",
      "type": "function"
    },
    {
      "constant": false,
      "inputs": [],
      "name": "claim",
      "outputs": [],
      "payable": false,
      "stateMutability": "nonpayable",
      "type": "function"
    },
    {
      "constant": true,
      "inputs": [
        {
          "name": "",
          "type": "uint256"
        }
      ],
      "name": "payees",
      "outputs": [
        {
          "name": "",
          "type": "address"
        }
      ],
      "payable": false,
      "stateMutability": "view",
      "type": "function"
    },
    {
      "constant": true,
      "inputs": [
        {
          "name": "",
          "type": "address"
        }
      ],
      "name": "released",
      "outputs": [
        {
          "name": "",
          "type": "uint256"
        }
      ],
      "payable": false,
      "stateMutability": "view",
      "type": "function"
    },
    {
      "constant": true,
      "inputs": [
        {
          "name": "",
          "type": "address"
        }
      ],
      "name": "shares",
      "outputs": [
        {
          "name": "",
          "type": "uint256"
        }
      ],
      "payable": false,
      "stateMutability": "view",
      "type": "function"
    },
    {
      "constant": true,
      "inputs": [],
      "name": "totalReleased",
      "outputs": [
        {
          "name": "",
          "type": "uint256"
        }
      ],
      "payable": false,
      "stateMutability": "view",
      "type": "function"
    },
    {
      "inputs": [
        {
          "name": "_payees",
          "type": "address[]"
        },
        {
          "name": "_shares",
          "type": "uint256[]"
        }
      ],
      "payable": false,
      "stateMutability": "nonpayable",
      "type": "constructor"
    },
    {
      "payable": true,
      "stateMutability": "payable",
      "type": "fallback"
    }
  ],
  "bytecode": "0x6060604052600080556000600155341561001857600080fd5b6040516109cd3803806109cd83398101604052808051820191906020018051820191905050818160008151835114151561005157600080fd5b600090505b82518110156100b7576100aa838281518110151561007057fe5b90602001906020020151838381518110151561008857fe5b906020019060200201516100c164010000000002610546176401000000009004565b8080600101915050610056565b505050505061029c565b600073ffffffffffffffffffffffffffffffffffffffff168273ffffffffffffffffffffffffffffffffffffffff16141515156100fd57600080fd5b60008111151561010c57600080fd5b6000600260008473ffffffffffffffffffffffffffffffffffffffff1673ffffffffffffffffffffffffffffffffffffffff1681526020019081526020016000205414151561015a57600080fd5b6004805480600101828161016e919061024b565b9160005260206000209001600084909190916101000a81548173ffffffffffffffffffffffffffffffffffffffff021916908373ffffffffffffffffffffffffffffffffffffffff1602179055505080600260008473ffffffffffffffffffffffffffffffffffffffff1673ffffffffffffffffffffffffffffffffffffffff168152602001908152602001600020819055506102238160005461022d640100000000026104c1179091906401000000009004565b6000819055505050565b600080828401905083811015151561024157fe5b8091505092915050565b815481835581811511610272578183600052602060002091820191016102719190610277565b5b505050565b61029991905b8082111561029557600081600090555060010161027d565b5090565b90565b610722806102ab6000396000f300606060405260043610610078576000357c0100000000000000000000000000000000000000000000000000000000900463ffffffff1680633a98ef391461007a5780634e71d92d146100a357806363037b0c146100b85780639852595c1461011b578063ce7c2ac214610168578063e33b7de3146101b5575b005b341561008557600080fd5b61008d6101de565b6040518082815260200191505060405180910390f35b34156100ae57600080fd5b6100b66101e4565b005b34156100c357600080fd5b6100d9600480803590602001909190505061044c565b604051808273ffffffffffffffffffffffffffffffffffffffff1673ffffffffffffffffffffffffffffffffffffffff16815260200191505060405180910390f35b341561012657600080fd5b610152600480803573ffffffffffffffffffffffffffffffffffffffff1690602001909190505061048b565b6040518082815260200191505060405180910390f35b341561017357600080fd5b61019f600480803573ffffffffffffffffffffffffffffffffffffffff169060200190919050506104a3565b6040518082815260200191505060405180910390f35b34156101c057600080fd5b6101c86104bb565b6040518082815260200191505060405180910390f35b60005481565b60008060003392506000600260008573ffffffffffffffffffffffffffffffffffffffff1673ffffffffffffffffffffffffffffffffffffffff1681526020019081526020016000205411151561023a57600080fd5b6102666001543073ffffffffffffffffffffffffffffffffffffffff16316104c190919063ffffffff16565b915061031f600360008573ffffffffffffffffffffffffffffffffffffffff1673ffffffffffffffffffffffffffffffffffffffff16815260200190815260200160002054610311600054610303600260008973ffffffffffffffffffffffffffffffffffffffff1673ffffffffffffffffffffffffffffffffffffffff16815260200190815260200160002054876104df90919063ffffffff16565b61051290919063ffffffff16565b61052d90919063ffffffff16565b90506000811415151561033157600080fd5b803073ffffffffffffffffffffffffffffffffffffffff16311015151561035757600080fd5b6103a981600360008673ffffffffffffffffffffffffffffffffffffffff1673ffffffffffffffffffffffffffffffffffffffff168152602001908152602001600020546104c190919063ffffffff16565b600360008573ffffffffffffffffffffffffffffffffffffffff1673ffffffffffffffffffffffffffffffffffffffff16815260200190815260200160002081905550610401816001546104c190919063ffffffff16565b6001819055508273ffffffffffffffffffffffffffffffffffffffff166108fc829081150290604051600060405180830381858888f19350505050151561044757600080fd5b505050565b60048181548110151561045b57fe5b90600052602060002090016000915054906101000a900473ffffffffffffffffffffffffffffffffffffffff1681565b60036020528060005260406000206000915090505481565b60026020528060005260406000206000915090505481565b60015481565b60008082840190508381101515156104d557fe5b8091505092915050565b6000808284029050600084148061050057508284828115156104fd57fe5b04145b151561050857fe5b8091505092915050565b600080828481151561052057fe5b0490508091505092915050565b600082821115151561053b57fe5b818303905092915050565b600073ffffffffffffffffffffffffffffffffffffffff168273ffffffffffffffffffffffffffffffffffffffff161415151561058257600080fd5b60008111151561059157600080fd5b6000600260008473ffffffffffffffffffffffffffffffffffffffff1673ffffffffffffffffffffffffffffffffffffffff168152602001908152602001600020541415156105df57600080fd5b600480548060010182816105f391906106a5565b9160005260206000209001600084909190916101000a81548173ffffffffffffffffffffffffffffffffffffffff021916908373ffffffffffffffffffffffffffffffffffffffff1602179055505080600260008473ffffffffffffffffffffffffffffffffffffffff1673ffffffffffffffffffffffffffffffffffffffff1681526020019081526020016000208190555061069b816000546104c190919063ffffffff16565b6000819055505050565b8154818355818115116106cc578183600052602060002091820191016106cb91906106d1565b5b505050565b6106f391905b808211156106ef5760008160009055506001016106d7565b5090565b905600a165627a7a723058206221cd41094da9a178c2ba2aee1bbf9edda256f26d5149a20e4bd9b9975b16cc0029",
  "source": "pragma solidity 0.4.18;\n\nimport './SplitPayment.sol';\n\ncontract DonationSplitter is SplitPayment {\n    function DonationSplitter (address[] _payees, uint256[] _shares)\n        SplitPayment(_payees, _shares)\n        public\n    {\n\n    }\n\n    // accept ether\n    function () payable {}\n}\n",
  "sourcePath": "/Users/matt/Projects/steak.network/token/contracts/DonationSplitter.sol",
  "compiler": {
    "name": "solc",
    "version": "0.4.18+commit.9cf6e910.Emscripten.clang"
  },
  "schemaVersion": "1.0.1",
  "updatedAt": "2017-11-17T13:06:11.259Z"
}