{
  "contractName": "SplitPayment",
  "abi": [
    {
      "constant": true,
      "inputs": [],
      "name": "totalShares",
      "outputs": [
        {
          "name": "",
          "type": "uint256"
        }
      ],
      "payable": false,
      "stateMutability": "view",
      "type": "function"
    },
    {
      "constant": false,
      "inputs": [],
      "name": "claim",
      "outputs": [],
      "payable": false,
      "stateMutability": "nonpayable",
      "type": "function"
    },
    {
      "constant": true,
      "inputs": [
        {
          "name": "",
          "type": "uint256"
        }
      ],
      "name": "payees",
      "outputs": [
        {
          "name": "",
          "type": "address"
        }
      ],
      "payable": false,
      "stateMutability": "view",
      "type": "function"
    },
    {
      "constant": true,
      "inputs": [
        {
          "name": "",
          "type": "address"
        }
      ],
      "name": "released",
      "outputs": [
        {
          "name": "",
          "type": "uint256"
        }
      ],
      "payable": false,
      "stateMutability": "view",
      "type": "function"
    },
    {
      "constant": true,
      "inputs": [
        {
          "name": "",
          "type": "address"
        }
      ],
      "name": "shares",
      "outputs": [
        {
          "name": "",
          "type": "uint256"
        }
      ],
      "payable": false,
      "stateMutability": "view",
      "type": "function"
    },
    {
      "constant": true,
      "inputs": [],
      "name": "totalReleased",
      "outputs": [
        {
          "name": "",
          "type": "uint256"
        }
      ],
      "payable": false,
      "stateMutability": "view",
      "type": "function"
    },
    {
      "inputs": [
        {
          "name": "_payees",
          "type": "address[]"
        },
        {
          "name": "_shares",
          "type": "uint256[]"
        }
      ],
      "payable": false,
      "stateMutability": "nonpayable",
      "type": "constructor"
    }
  ],
  "bytecode": "0x6060604052600080556000600155341561001857600080fd5b6040516109d43803806109d48339810160405280805182019190602001805182019190505060008151835114151561004f57600080fd5b600090505b82518110156100b5576100a8838281518110151561006e57fe5b90602001906020020151838381518110151561008657fe5b906020019060200201516100bd64010000000002610551176401000000009004565b8080600101915050610054565b505050610298565b600073ffffffffffffffffffffffffffffffffffffffff168273ffffffffffffffffffffffffffffffffffffffff16141515156100f957600080fd5b60008111151561010857600080fd5b6000600260008473ffffffffffffffffffffffffffffffffffffffff1673ffffffffffffffffffffffffffffffffffffffff1681526020019081526020016000205414151561015657600080fd5b6004805480600101828161016a9190610247565b9160005260206000209001600084909190916101000a81548173ffffffffffffffffffffffffffffffffffffffff021916908373ffffffffffffffffffffffffffffffffffffffff1602179055505080600260008473ffffffffffffffffffffffffffffffffffffffff1673ffffffffffffffffffffffffffffffffffffffff1681526020019081526020016000208190555061021f81600054610229640100000000026104c4179091906401000000009004565b6000819055505050565b600080828401905083811015151561023d57fe5b8091505092915050565b81548183558181151161026e5781836000526020600020918201910161026d9190610273565b5b505050565b61029591905b80821115610291576000816000905550600101610279565b5090565b90565b61072d806102a76000396000f300606060405260043610610078576000357c0100000000000000000000000000000000000000000000000000000000900463ffffffff1680633a98ef391461007d5780634e71d92d146100a657806363037b0c146100bb5780639852595c1461011e578063ce7c2ac21461016b578063e33b7de3146101b8575b600080fd5b341561008857600080fd5b6100906101e1565b6040518082815260200191505060405180910390f35b34156100b157600080fd5b6100b96101e7565b005b34156100c657600080fd5b6100dc600480803590602001909190505061044f565b604051808273ffffffffffffffffffffffffffffffffffffffff1673ffffffffffffffffffffffffffffffffffffffff16815260200191505060405180910390f35b341561012957600080fd5b610155600480803573ffffffffffffffffffffffffffffffffffffffff1690602001909190505061048e565b6040518082815260200191505060405180910390f35b341561017657600080fd5b6101a2600480803573ffffffffffffffffffffffffffffffffffffffff169060200190919050506104a6565b6040518082815260200191505060405180910390f35b34156101c357600080fd5b6101cb6104be565b6040518082815260200191505060405180910390f35b60005481565b60008060003392506000600260008573ffffffffffffffffffffffffffffffffffffffff1673ffffffffffffffffffffffffffffffffffffffff1681526020019081526020016000205411151561023d57600080fd5b6102696001543073ffffffffffffffffffffffffffffffffffffffff16316104c490919063ffffffff16565b9150610322600360008573ffffffffffffffffffffffffffffffffffffffff1673ffffffffffffffffffffffffffffffffffffffff16815260200190815260200160002054610314600054610306600260008973ffffffffffffffffffffffffffffffffffffffff1673ffffffffffffffffffffffffffffffffffffffff16815260200190815260200160002054876104e290919063ffffffff16565b61051d90919063ffffffff16565b61053890919063ffffffff16565b90506000811415151561033457600080fd5b803073ffffffffffffffffffffffffffffffffffffffff16311015151561035a57600080fd5b6103ac81600360008673ffffffffffffffffffffffffffffffffffffffff1673ffffffffffffffffffffffffffffffffffffffff168152602001908152602001600020546104c490919063ffffffff16565b600360008573ffffffffffffffffffffffffffffffffffffffff1673ffffffffffffffffffffffffffffffffffffffff16815260200190815260200160002081905550610404816001546104c490919063ffffffff16565b6001819055508273ffffffffffffffffffffffffffffffffffffffff166108fc829081150290604051600060405180830381858888f19350505050151561044a57600080fd5b505050565b60048181548110151561045e57fe5b90600052602060002090016000915054906101000a900473ffffffffffffffffffffffffffffffffffffffff1681565b60036020528060005260406000206000915090505481565b60026020528060005260406000206000915090505481565b60015481565b60008082840190508381101515156104d857fe5b8091505092915050565b60008060008414156104f75760009150610516565b828402905082848281151561050857fe5b0414151561051257fe5b8091505b5092915050565b600080828481151561052b57fe5b0490508091505092915050565b600082821115151561054657fe5b818303905092915050565b600073ffffffffffffffffffffffffffffffffffffffff168273ffffffffffffffffffffffffffffffffffffffff161415151561058d57600080fd5b60008111151561059c57600080fd5b6000600260008473ffffffffffffffffffffffffffffffffffffffff1673ffffffffffffffffffffffffffffffffffffffff168152602001908152602001600020541415156105ea57600080fd5b600480548060010182816105fe91906106b0565b9160005260206000209001600084909190916101000a81548173ffffffffffffffffffffffffffffffffffffffff021916908373ffffffffffffffffffffffffffffffffffffffff1602179055505080600260008473ffffffffffffffffffffffffffffffffffffffff1673ffffffffffffffffffffffffffffffffffffffff168152602001908152602001600020819055506106a6816000546104c490919063ffffffff16565b6000819055505050565b8154818355818115116106d7578183600052602060002091820191016106d691906106dc565b5b505050565b6106fe91905b808211156106fa5760008160009055506001016106e2565b5090565b905600a165627a7a72305820aac09423671b0ac0b4d8d5de943242a48423266cdcf15238bf763bdeb4136e800029",
  "source": "pragma solidity ^0.4.18;\n\nimport '../math/SafeMath.sol';\n\n/**\n * @title SplitPayment\n * @dev Base contract that supports multiple payees claiming funds sent to this contract \n * according to the proportion they own.\n */\ncontract SplitPayment {\n  using SafeMath for uint256;\n\n  uint256 public totalShares = 0;\n  uint256 public totalReleased = 0;\n\n  mapping(address => uint256) public shares;\n  mapping(address => uint256) public released;\n  address[] public payees;\n\n  /**\n   * @dev Constructor\n   */\n  function SplitPayment(address[] _payees, uint256[] _shares) public {\n    require(_payees.length == _shares.length);\n\n    for (uint256 i = 0; i < _payees.length; i++) {\n      addPayee(_payees[i], _shares[i]);\n    }\n  }\n\n  /**\n   * @dev Add a new payee to the contract.\n   * @param _payee The address of the payee to add.\n   * @param _shares The number of shares owned by the payee.\n   */\n  function addPayee(address _payee, uint256 _shares) internal {\n    require(_payee != address(0));\n    require(_shares > 0);\n    require(shares[_payee] == 0);\n\n    payees.push(_payee);\n    shares[_payee] = _shares;\n    totalShares = totalShares.add(_shares);\n  }\n\n  /**\n   * @dev Claim your share of the balance.\n   */\n  function claim() public {\n    address payee = msg.sender;\n\n    require(shares[payee] > 0);\n\n    uint256 totalReceived = this.balance.add(totalReleased);\n    uint256 payment = totalReceived.mul(shares[payee]).div(totalShares).sub(released[payee]);\n\n    require(payment != 0);\n    require(this.balance >= payment);\n\n    released[payee] = released[payee].add(payment);\n    totalReleased = totalReleased.add(payment);\n\n    payee.transfer(payment);\n  }\n}\n",
  "sourcePath": "zeppelin-solidity/contracts/payment/SplitPayment.sol",
  "compiler": {
    "name": "solc",
    "version": "0.4.18+commit.9cf6e910.Emscripten.clang"
  },
  "schemaVersion": "1.0.1",
  "updatedAt": "2017-11-30T10:54:28.594Z"
}